:10000000370102001301F1FF6F00C0206F000000F4
:10001000130101FF23229100B7C4010023248100B2
:100020002320210123261100330995001304050024
:10003000EF00C022935785002308A920135505011E
:10004000A308F9202309A92093F7F70F13075000FD
:100050006366F7048357C4009387F7FF2316F40001
:10006000B304940083C72421130750006362F7048C
:100070008357E4009387F7FF2317F40093071000DA
:100080008320C1002310F400032481008324410055
:100090000329010013010101678000001307A0007C
:1000A000E370F7FC8357C400938717006FF01FFBC2
:1000B0001307A000E374F7FC8357E400938717004D
:1000C0006FF09FFB130101FD2324810223202103F4
:1000D000232C4101232A51012328610123261102E7
:1000E00023229102232E310113040500130A050077
:1000F00013090000930A0014130B400B93090A0024
:1001000093040000231091002311210103D509015C
:1001100083250100938414009394040193D4040173
:10012000EF00C01693892900E39E54FD13091900BE
:100130001319090113590901130A0A28E31069FD6B
:10014000835704000357E4008355C40093971700B6
:10015000B307F40003D5270013170701B365B700F1
:10016000EF00C0120357E4008357C400930400005B
:10017000930617002311D1009306F7FF2310F10017
:100180002312F1002313D100938617009387F7FF02
:100190002314D1002315E1002316F1002317E100F9
:1001A000930901001309400093972400B387370196
:1001B00083A507000355240093841400EF00000D6D
:1001C000E39424FF032481028320C102832441029B
:1001D000032901028329C101032A8101832A4101E4
:1001E000032B0101130101036F00C00D1307F0FF82
:1001F0002311E500130700802313E5001307007E99
:100200002314E5001307F001231205002315E50070
:1002100067800000130101DDB742FEFF2324812225
:100220009307F0FF23261122330151002317F10019
:10023000B70700F82328F100B7071F009387077E50
:10024000232AF1001304C10013050400EFF05FDC62
:1002500013050400EFF01FE76FF01FFFB70703005F
:1002600003C71700B706030083C7270003C536007E
:1002700013178700130101FF939707013365E5000A
:100280003365F500130101016780000013D70501F4
:1002900093172700B387E7009395050193976700AD
:1002A00093D50501B387B70093971700370702006E
:1002B000B387E700130101FF2390A7001301010199
:1002C00067800000B707030013071000A38FE7FE45
:0402D0006780000043
:00000001FF
